{
  "contractName": "CrowdfundedCharity",
  "abi": [
    {
      "constant": true,
      "inputs": [
        {
          "name": "",
          "type": "uint256"
        }
      ],
      "name": "campaigns",
      "outputs": [
        {
          "name": "beneficiary",
          "type": "address"
        },
        {
          "name": "id",
          "type": "uint256"
        },
        {
          "name": "fundingGoal",
          "type": "uint256"
        },
        {
          "name": "fundingDeadlineBlock",
          "type": "uint256"
        },
        {
          "name": "numFunders",
          "type": "uint256"
        },
        {
          "name": "amount",
          "type": "uint256"
        },
        {
          "name": "name",
          "type": "bytes32"
        },
        {
          "name": "description",
          "type": "string"
        }
      ],
      "payable": false,
      "stateMutability": "view",
      "type": "function"
    },
    {
      "constant": true,
      "inputs": [],
      "name": "numCampaigns",
      "outputs": [
        {
          "name": "",
          "type": "uint256"
        }
      ],
      "payable": false,
      "stateMutability": "view",
      "type": "function"
    },
    {
      "constant": true,
      "inputs": [],
      "name": "version",
      "outputs": [
        {
          "name": "",
          "type": "bytes32"
        }
      ],
      "payable": false,
      "stateMutability": "view",
      "type": "function"
    },
    {
      "inputs": [
        {
          "name": "version_number",
          "type": "bytes32"
        }
      ],
      "payable": false,
      "stateMutability": "nonpayable",
      "type": "constructor"
    },
    {
      "anonymous": false,
      "inputs": [
        {
          "indexed": false,
          "name": "addr",
          "type": "address"
        },
        {
          "indexed": false,
          "name": "amount",
          "type": "uint256"
        },
        {
          "indexed": false,
          "name": "campaignID",
          "type": "uint256"
        }
      ],
      "name": "NewFunder",
      "type": "event"
    },
    {
      "anonymous": false,
      "inputs": [
        {
          "indexed": false,
          "name": "beneficiary",
          "type": "address"
        },
        {
          "indexed": false,
          "name": "fundingGoal",
          "type": "uint256"
        },
        {
          "indexed": false,
          "name": "fundingDeadlineBlock",
          "type": "uint256"
        }
      ],
      "name": "NewCharity",
      "type": "event"
    },
    {
      "constant": false,
      "inputs": [],
      "name": "toggleContractActive",
      "outputs": [],
      "payable": false,
      "stateMutability": "nonpayable",
      "type": "function"
    },
    {
      "constant": false,
      "inputs": [
        {
          "name": "beneficiary",
          "type": "address"
        },
        {
          "name": "goal",
          "type": "uint256"
        },
        {
          "name": "deadline",
          "type": "uint256"
        },
        {
          "name": "name",
          "type": "bytes32"
        },
        {
          "name": "description",
          "type": "string"
        }
      ],
      "name": "newCampaign",
      "outputs": [
        {
          "name": "campaignID",
          "type": "uint256"
        }
      ],
      "payable": false,
      "stateMutability": "nonpayable",
      "type": "function"
    },
    {
      "constant": true,
      "inputs": [
        {
          "name": "campaignID",
          "type": "uint8"
        }
      ],
      "name": "totalFundsFor",
      "outputs": [
        {
          "name": "",
          "type": "uint256"
        }
      ],
      "payable": false,
      "stateMutability": "view",
      "type": "function"
    },
    {
      "constant": false,
      "inputs": [
        {
          "name": "campaignID",
          "type": "uint256"
        }
      ],
      "name": "contribute",
      "outputs": [],
      "payable": true,
      "stateMutability": "payable",
      "type": "function"
    },
    {
      "constant": false,
      "inputs": [
        {
          "name": "campaignID",
          "type": "uint256"
        }
      ],
      "name": "checkGoalReached",
      "outputs": [
        {
          "name": "reached",
          "type": "bool"
        }
      ],
      "payable": false,
      "stateMutability": "nonpayable",
      "type": "function"
    }
  ],
  "bytecode": "0x606060405260006001556000600460006101000a81548160ff021916908315150217905550341561002f57600080fd5b604051602080610ae7833981016040528080519060200190919050508060028160001916905550336000806101000a81548173ffffffffffffffffffffffffffffffffffffffff021916908373ffffffffffffffffffffffffffffffffffffffff16021790555050610a41806100a66000396000f30060606040526004361061008e576000357c0100000000000000000000000000000000000000000000000000000000900463ffffffff1680630b5c0a95146100935780631385d24c146100cd578063141961bc146100e25780632c0f7b6f1461020057806346fd23111461022957806354fd4d50146102d85780635b2329d414610309578063c1cbbca714610344575b600080fd5b341561009e57600080fd5b6100b7600480803560ff1690602001909190505061035c565b6040518082815260200191505060405180910390f35b34156100d857600080fd5b6100e0610393565b005b34156100ed57600080fd5b610103600480803590602001909190505061041a565b604051808973ffffffffffffffffffffffffffffffffffffffff1673ffffffffffffffffffffffffffffffffffffffff1681526020018881526020018781526020018681526020018581526020018481526020018360001916600019168152602001806020018281038252838181546001816001161561010002031660029004815260200191508054600181600116156101000203166002900480156101ea5780601f106101bf576101008083540402835291602001916101ea565b820191906000526020600020905b8154815290600101906020018083116101cd57829003601f168201915b5050995050505050505050505060405180910390f35b341561020b57600080fd5b610213610481565b6040518082815260200191505060405180910390f35b341561023457600080fd5b6102c2600480803573ffffffffffffffffffffffffffffffffffffffff169060200190919080359060200190919080359060200190919080356000191690602001909190803590602001908201803590602001908080601f01602080910402602001604051908101604052809392919081815260200183838082843782019150505050505091905050610487565b6040518082815260200191505060405180910390f35b34156102e357600080fd5b6102eb6105e7565b60405180826000191660001916815260200191505060405180910390f35b341561031457600080fd5b61032a60048080359060200190919050506105ed565b604051808215151515815260200191505060405180910390f35b61035a600480803590602001909190505061083a565b005b60006001548260ff161115151561037257600080fd5b600360008360ff168152602001908152602001600020600501549050919050565b6000809054906101000a900473ffffffffffffffffffffffffffffffffffffffff1673ffffffffffffffffffffffffffffffffffffffff163373ffffffffffffffffffffffffffffffffffffffff161415156103ee57600080fd5b600460009054906101000a900460ff1615600460006101000a81548160ff021916908315150217905550565b60036020528060005260406000206000915090508060000160009054906101000a900473ffffffffffffffffffffffffffffffffffffffff169080600101549080600201549080600301549080600401549080600501549080600601549080600701905088565b60015481565b600080600460009054906101000a900460ff1615156105dd57600160008154809291906001019190505591506104bf85611680610935565b43019050610100604051908101604052808873ffffffffffffffffffffffffffffffffffffffff168152602001600184018152602001878152602001828152602001600081526020016000815260200185600019168152602001848152506003600084815260200190815260200160002060008201518160000160006101000a81548173ffffffffffffffffffffffffffffffffffffffff021916908373ffffffffffffffffffffffffffffffffffffffff1602179055506020820151816001015560408201518160020155606082015181600301556080820151816004015560a0820151816005015560c0820151816006019060001916905560e08201518160070190805190602001906105d5929190610970565b509050508191505b5095945050505050565b60025481565b6000806000806000600460009054906101000a900460ff1615156108315760036000878152602001908152602001600020935043846003015411151561079d5783600201548460050154101561070d57600192505b836004015483101561070c5783600801600084815260200190815260200160002060010154915060008460080160008581526020019081526020016000206001018190555083600801600084815260200190815260200160002060000160009054906101000a900473ffffffffffffffffffffffffffffffffffffffff1673ffffffffffffffffffffffffffffffffffffffff166108fc839081150290604051600060405180830381858888f1935050505015156106ff57600080fd5b8280600101935050610642565b5b8360020154846005015410151561079c5783600501549050600084600501819055508360000160009054906101000a900473ffffffffffffffffffffffffffffffffffffffff1673ffffffffffffffffffffffffffffffffffffffff166108fc829081150290604051600060405180830381858888f19350505050151561079357600080fd5b60019450610830565b5b8360020154846005015410156107b65760009450610830565b83600501549050600084600501819055508360000160009054906101000a900473ffffffffffffffffffffffffffffffffffffffff1673ffffffffffffffffffffffffffffffffffffffff166108fc829081150290604051600060405180830381858888f19350505050151561082b57600080fd5b600194505b5b50505050919050565b6000600460009054906101000a900460ff161515610931576003600083815260200190815260200160002090506060604051908101604052803373ffffffffffffffffffffffffffffffffffffffff1681526020013481526020018381525081600801600083600401600081548092919060010191905055815260200190815260200160002060008201518160000160006101000a81548173ffffffffffffffffffffffffffffffffffffffff021916908373ffffffffffffffffffffffffffffffffffffffff16021790555060208201518160010155604082015181600201559050503481600501600082825401925050819055505b5050565b600080600084141561094a5760009150610969565b828402905082848281151561095b57fe5b0414151561096557fe5b8091505b5092915050565b828054600181600116156101000203166002900490600052602060002090601f016020900481019282601f106109b157805160ff19168380011785556109df565b828001600101855582156109df579182015b828111156109de5782518255916020019190600101906109c3565b5b5090506109ec91906109f0565b5090565b610a1291905b80821115610a0e5760008160009055506001016109f6565b5090565b905600a165627a7a72305820854f413d85ce078181445459b38b698615fbf0bd96347399201e5c743f21d99c0029",
  "source": "pragma solidity ^0.4.18;\n\ncontract CrowdfundedCharity {\n\n    address private owner;\n\n    event NewFunder(\n      address addr,\n      uint amount,\n      uint campaignID\n    );\n\n    event NewCharity(\n      address beneficiary,\n      uint fundingGoal,\n      uint fundingDeadlineBlock\n      );\n\n    struct Funder {\n        address addr;\n        uint amount;\n        uint campaignID;\n    }\n\n    struct Campaign {\n        address beneficiary; // This will be the adress to be paid for the order\n        uint id; //This is different from campaign ID, used to identify each campaign from the frontend\n        uint fundingGoal;\n        uint fundingDeadlineBlock;\n        uint numFunders;\n        uint amount;\n        bytes32 name;\n        string description;\n        mapping (uint => Funder) funders;\n    }\n\n    uint public numCampaigns = 0;\n    bytes32 public version;\n    mapping (uint => Campaign) public campaigns;\n\n    modifier isAdmin(){\n      require(msg.sender == owner);\n      _;\n    }\n\n    bool private stopped = false;\n\n    function toggleContractActive() isAdmin public {\n      stopped = !stopped;\n    }\n\n    modifier stopInEmergency { if(!stopped) _;}\n\n    //simple constructor\n    function CrowdfundedCharity (bytes32 version_number) public {\n    version = version_number;\n    owner = msg.sender;\n    }\n\n    function newCampaign(address beneficiary, uint goal, uint deadline, bytes32 name, string description) stopInEmergency public returns (uint campaignID) {\n        // deadline is given in days. Using the average number of blocks per day\n        // we calculate how many blocks the campaign will be valid for.\n        campaignID = numCampaigns++;\n        uint deadlineBlock = block.number + mul(deadline,5760);\n        // campaignID is the return variable\n        // Creates new struct and saves in storage. We leave out the mapping type.\n        campaigns[campaignID] = Campaign(beneficiary, campaignID + 1, goal, deadlineBlock, 0, 0, name, description);\n        //NewCharity(beneficiary, goal, deadlineBlock);\n        return campaignID;\n    }\n\n   function totalFundsFor(uint8 campaignID) view public returns (uint){\n        require(campaignID <= numCampaigns);\n        return campaigns[campaignID].amount;\n   }\n\n    function contribute(uint campaignID) stopInEmergency public payable {\n\n      Campaign storage c = campaigns[campaignID];\n      // Creates a new temporary memory struct, initialised with the given values\n      // and copies it over to memory.\n      //  require(campaignID <= numCampaigns);\n      //  require( c.fundingDeadlineBlock < block.number );\n      //  require( c.amount + msg.value < c.fundingGoal );\n\n      c.funders[c.numFunders++] = Funder({addr: msg.sender, amount: msg.value, campaignID: campaignID});\n      c.amount += msg.value;\n      //NewFunder(msg.sender,msg.value,campaignID);\n    }\n\n    function mul(uint256 a, uint256 b) internal pure returns (uint256) {\n      if (a == 0) {\n        return 0;\n      }\n      uint256 c = a * b;\n      assert(c / a == b);\n      return c;\n  }\n\n    function checkGoalReached(uint campaignID) stopInEmergency public returns (bool reached) {\n        Campaign storage c = campaigns[campaignID];\n        if ( c.fundingDeadlineBlock <= block.number) {\n          if (c.amount < c.fundingGoal) {\n            //Charity Failed, Initiate Refunds\n            for(uint i=1; i<c.numFunders; i++){\n              uint refund =c.funders[i].amount;\n              c.funders[i].amount =0;\n              c.funders[i].addr.transfer(refund);\n            }\n          }\n\n          if (c.amount >= c.fundingGoal){\n            // Charity Successful, Transfer Amount\n            uint amount = c.amount;\n            c.amount = 0;\n            c.beneficiary.transfer(amount);\n            return true;\n          }\n        }\n\n        if (c.amount < c.fundingGoal) {\n            return false;\n        }\n        amount = c.amount;\n        c.amount = 0;\n        c.beneficiary.transfer(amount);\n        return true;\n    }\n}\n",
  "sourcePath": "/home/harry/Golconda/Golconda-thesis-master/contracts/CrowdfundedCharity.sol",
  "compiler": {
    "name": "solc",
    "version": "0.4.19+commit.c4cbbb05.Emscripten.clang"
  },
  "schemaVersion": "1.0.1",
  "updatedAt": "2018-02-22T15:26:43.448Z"
}