{
  "contractName": "CrowdfundedCharity",
  "abi": [
    {
      "constant": true,
      "inputs": [
        {
          "name": "",
          "type": "uint256"
        }
      ],
      "name": "campaigns",
      "outputs": [
        {
          "name": "beneficiary",
          "type": "address"
        },
        {
          "name": "id",
          "type": "uint256"
        },
        {
          "name": "fundingGoal",
          "type": "uint256"
        },
        {
          "name": "fundingDeadlineBlock",
          "type": "uint256"
        },
        {
          "name": "numFunders",
          "type": "uint256"
        },
        {
          "name": "amount",
          "type": "uint256"
        },
        {
          "name": "name",
          "type": "bytes32"
        },
        {
          "name": "description",
          "type": "string"
        },
        {
          "name": "isActive",
          "type": "bool"
        }
      ],
      "payable": false,
      "stateMutability": "view",
      "type": "function"
    },
    {
      "constant": true,
      "inputs": [],
      "name": "numCampaigns",
      "outputs": [
        {
          "name": "",
          "type": "uint256"
        }
      ],
      "payable": false,
      "stateMutability": "view",
      "type": "function"
    },
    {
      "constant": true,
      "inputs": [],
      "name": "version",
      "outputs": [
        {
          "name": "",
          "type": "bytes32"
        }
      ],
      "payable": false,
      "stateMutability": "view",
      "type": "function"
    },
    {
      "inputs": [
        {
          "name": "version_number",
          "type": "bytes32"
        }
      ],
      "payable": false,
      "stateMutability": "nonpayable",
      "type": "constructor"
    },
    {
      "anonymous": false,
      "inputs": [
        {
          "indexed": false,
          "name": "addr",
          "type": "address"
        },
        {
          "indexed": false,
          "name": "amount",
          "type": "uint256"
        },
        {
          "indexed": false,
          "name": "campaignID",
          "type": "uint256"
        }
      ],
      "name": "NewFunder",
      "type": "event"
    },
    {
      "anonymous": false,
      "inputs": [
        {
          "indexed": false,
          "name": "beneficiary",
          "type": "address"
        },
        {
          "indexed": false,
          "name": "fundingGoal",
          "type": "uint256"
        },
        {
          "indexed": false,
          "name": "fundingDeadlineBlock",
          "type": "uint256"
        }
      ],
      "name": "NewCharity",
      "type": "event"
    },
    {
      "constant": false,
      "inputs": [],
      "name": "toggleContractActive",
      "outputs": [],
      "payable": false,
      "stateMutability": "nonpayable",
      "type": "function"
    },
    {
      "constant": false,
      "inputs": [
        {
          "name": "beneficiary",
          "type": "address"
        },
        {
          "name": "goal",
          "type": "uint256"
        },
        {
          "name": "deadline",
          "type": "uint256"
        },
        {
          "name": "name",
          "type": "bytes32"
        },
        {
          "name": "description",
          "type": "string"
        }
      ],
      "name": "newCampaign",
      "outputs": [
        {
          "name": "campaignID",
          "type": "uint256"
        }
      ],
      "payable": false,
      "stateMutability": "nonpayable",
      "type": "function"
    },
    {
      "constant": true,
      "inputs": [
        {
          "name": "campaignID",
          "type": "uint8"
        }
      ],
      "name": "totalFundsFor",
      "outputs": [
        {
          "name": "",
          "type": "uint256"
        }
      ],
      "payable": false,
      "stateMutability": "view",
      "type": "function"
    },
    {
      "constant": false,
      "inputs": [
        {
          "name": "campaignID",
          "type": "uint256"
        }
      ],
      "name": "contribute",
      "outputs": [],
      "payable": true,
      "stateMutability": "payable",
      "type": "function"
    },
    {
      "constant": false,
      "inputs": [
        {
          "name": "campaignID",
          "type": "uint256"
        }
      ],
      "name": "checkGoalReached",
      "outputs": [
        {
          "name": "reached",
          "type": "bool"
        }
      ],
      "payable": false,
      "stateMutability": "nonpayable",
      "type": "function"
    },
    {
      "constant": false,
      "inputs": [],
      "name": "destroy",
      "outputs": [],
      "payable": false,
      "stateMutability": "nonpayable",
      "type": "function"
    }
  ],
  "bytecode": "0x606060405260006001556000600460006101000a81548160ff021916908315150217905550341561002f57600080fd5b604051602080610cdf833981016040528080519060200190919050508060028160001916905550336000806101000a81548173ffffffffffffffffffffffffffffffffffffffff021916908373ffffffffffffffffffffffffffffffffffffffff16021790555050610c39806100a66000396000f300606060405260043610610099576000357c0100000000000000000000000000000000000000000000000000000000900463ffffffff1680630b5c0a951461009e5780631385d24c146100d8578063141961bc146100ed5780632c0f7b6f1461021657806346fd23111461023f57806354fd4d50146102ee5780635b2329d41461031f57806383197ef01461035a578063c1cbbca71461036f575b600080fd5b34156100a957600080fd5b6100c2600480803560ff16906020019091905050610387565b6040518082815260200191505060405180910390f35b34156100e357600080fd5b6100eb6103be565b005b34156100f857600080fd5b61010e6004808035906020019091905050610445565b604051808a73ffffffffffffffffffffffffffffffffffffffff1673ffffffffffffffffffffffffffffffffffffffff168152602001898152602001888152602001878152602001868152602001858152602001846000191660001916815260200180602001831515151581526020018281038252848181546001816001161561010002031660029004815260200191508054600181600116156101000203166002900480156101ff5780601f106101d4576101008083540402835291602001916101ff565b820191906000526020600020905b8154815290600101906020018083116101e257829003601f168201915b50509a505050505050505050505060405180910390f35b341561022157600080fd5b6102296104bf565b6040518082815260200191505060405180910390f35b341561024a57600080fd5b6102d8600480803573ffffffffffffffffffffffffffffffffffffffff169060200190919080359060200190919080359060200190919080356000191690602001909190803590602001908201803590602001908080601f016020809104026020016040519081016040528093929190818152602001838380828437820191505050505050919050506104c5565b6040518082815260200191505060405180910390f35b34156102f957600080fd5b6103016106c2565b60405180826000191660001916815260200191505060405180910390f35b341561032a57600080fd5b61034060048080359060200190919050506106c8565b604051808215151515815260200191505060405180910390f35b341561036557600080fd5b61036d6108d1565b005b6103856004808035906020019091905050610966565b005b60006001548260ff161115151561039d57600080fd5b600360008360ff168152602001908152602001600020600501549050919050565b6000809054906101000a900473ffffffffffffffffffffffffffffffffffffffff1673ffffffffffffffffffffffffffffffffffffffff163373ffffffffffffffffffffffffffffffffffffffff1614151561041957600080fd5b600460009054906101000a900460ff1615600460006101000a81548160ff021916908315150217905550565b60036020528060005260406000206000915090508060000160009054906101000a900473ffffffffffffffffffffffffffffffffffffffff169080600101549080600201549080600301549080600401549080600501549080600601549080600701908060080160009054906101000a900460ff16905089565b60015481565b600080600460009054906101000a900460ff1615156106b857600160008154809291906001019190505591506104fd85611680610b2d565b43019050610120604051908101604052808873ffffffffffffffffffffffffffffffffffffffff168152602001600184018152602001878152602001828152602001600081526020016000815260200185600019168152602001848152602001600115158152506003600084815260200190815260200160002060008201518160000160006101000a81548173ffffffffffffffffffffffffffffffffffffffff021916908373ffffffffffffffffffffffffffffffffffffffff1602179055506020820151816001015560408201518160020155606082015181600301556080820151816004015560a0820151816005015560c0820151816006019060001916905560e082015181600701908051906020019061061c929190610b68565b506101008201518160080160006101000a81548160ff0219169083151502179055509050507ff12b12a69d146cd10584ff540dacac148a08c902dac5de82ac03268c63a200cb878783604051808473ffffffffffffffffffffffffffffffffffffffff1673ffffffffffffffffffffffffffffffffffffffff168152602001838152602001828152602001935050505060405180910390a18191505b5095945050505050565b60025481565b6000806000806000600460009054906101000a900460ff1615156108c8576003600087815260200190815260200160002093504384600301541115156108ad57836002015484600501541015610800576001925083600401548310156107ff5783600901600084815260200190815260200160002060010154915060008460090160008581526020019081526020016000206001018190555083600901600084815260200190815260200160002060000160009054906101000a900473ffffffffffffffffffffffffffffffffffffffff1673ffffffffffffffffffffffffffffffffffffffff166108fc839081150290604051600060405180830381858888f1935050505015156107d957600080fd5b60008460080160006101000a81548160ff021916908315150217905550600194506108c7565b5b836002015484600501541015156108ac5783600501549050600084600501819055508360000160009054906101000a900473ffffffffffffffffffffffffffffffffffffffff1673ffffffffffffffffffffffffffffffffffffffff166108fc829081150290604051600060405180830381858888f19350505050151561088657600080fd5b60008460080160006101000a81548160ff021916908315150217905550600194506108c7565b5b8360020154846005015410156108c657600094506108c7565b5b5b50505050919050565b6000809054906101000a900473ffffffffffffffffffffffffffffffffffffffff1673ffffffffffffffffffffffffffffffffffffffff163373ffffffffffffffffffffffffffffffffffffffff1614151561092c57600080fd5b6000809054906101000a900473ffffffffffffffffffffffffffffffffffffffff1673ffffffffffffffffffffffffffffffffffffffff16ff5b6000600460009054906101000a900460ff161515610b295760036000838152602001908152602001600020905060015482111515156109a457600080fd5b4381600301541115156109b657600080fd5b806002015434826005015401111515156109cf57600080fd5b8060080160009054906101000a900460ff1615156109ec57600080fd5b6060604051908101604052803373ffffffffffffffffffffffffffffffffffffffff1681526020013481526020018381525081600901600083600401600081548092919060010191905055815260200190815260200160002060008201518160000160006101000a81548173ffffffffffffffffffffffffffffffffffffffff021916908373ffffffffffffffffffffffffffffffffffffffff16021790555060208201518160010155604082015181600201559050503481600501600082825401925050819055507f72a81bb95cf3aa9c7033351aee7b3e64f7d6dc3d928515cf1082e56ed4f961b1333484604051808473ffffffffffffffffffffffffffffffffffffffff1673ffffffffffffffffffffffffffffffffffffffff168152602001838152602001828152602001935050505060405180910390a15b5050565b6000806000841415610b425760009150610b61565b8284029050828482811515610b5357fe5b04141515610b5d57fe5b8091505b5092915050565b828054600181600116156101000203166002900490600052602060002090601f016020900481019282601f10610ba957805160ff1916838001178555610bd7565b82800160010185558215610bd7579182015b82811115610bd6578251825591602001919060010190610bbb565b5b509050610be49190610be8565b5090565b610c0a91905b80821115610c06576000816000905550600101610bee565b5090565b905600a165627a7a7230582005ad81e468e2bde608a17ef8ba2684d865ea0111ac8c39275084bfbfb1925cf30029",
  "source": "pragma solidity ^0.4.18;\n\ncontract CrowdfundedCharity {\n\n    address private owner;\n\n    event NewFunder(\n      address addr,\n      uint amount,\n      uint campaignID\n    );\n\n    event NewCharity(\n      address beneficiary,\n      uint fundingGoal,\n      uint fundingDeadlineBlock\n      );\n\n    struct Funder {\n        address addr;\n        uint amount;\n        uint campaignID;\n    }\n\n    struct Campaign {\n        address beneficiary; // This will be the adress to be paid for the order\n        uint id; //This is different from campaign ID, used to identify each campaign from the frontend\n        uint fundingGoal;\n        uint fundingDeadlineBlock;\n        uint numFunders;\n        uint amount;\n        bytes32 name;\n        string description;\n        bool isActive;\n        mapping (uint => Funder) funders;\n    }\n\n    uint public numCampaigns = 0;\n    bytes32 public version;\n    mapping (uint => Campaign) public campaigns;\n\n    modifier isAdmin(){\n      require(msg.sender == owner);\n      _;\n    }\n\n    bool private stopped = false;\n\n    function toggleContractActive() isAdmin public {\n      stopped = !stopped;\n    }\n\n    modifier stopInEmergency { if(!stopped) _;}\n\n    //simple constructor\n    function CrowdfundedCharity (bytes32 version_number) public {\n    version = version_number;\n    owner = msg.sender;\n    }\n\n    function newCampaign(address beneficiary, uint goal, uint deadline, bytes32 name, string description) stopInEmergency public returns (uint campaignID) {\n        // deadline is given in days. Using the average number of blocks per day\n        // we calculate how many blocks the campaign will be valid for.\n        campaignID = numCampaigns++;\n        uint deadlineBlock = block.number + mul(deadline,5760);\n        // campaignID is the return variable\n        // Creates new struct and saves in storage. We leave out the mapping type.\n        campaigns[campaignID] = Campaign(beneficiary, campaignID + 1, goal, deadlineBlock, 0, 0, name, description,true);\n        NewCharity(beneficiary, goal, deadlineBlock);\n        return campaignID;\n    }\n\n   function totalFundsFor(uint8 campaignID) view public returns (uint){\n        require(campaignID <= numCampaigns);\n        return campaigns[campaignID].amount;\n   }\n\n    function contribute(uint campaignID) stopInEmergency public payable {\n\n      Campaign storage c = campaigns[campaignID];\n      // Creates a new temporary memory struct, initialised with the given values\n      // and copies it over to memory.\n      require(campaignID <= numCampaigns);\n      require( c.fundingDeadlineBlock > block.number );\n      require( c.amount + msg.value <= c.fundingGoal );\n      require( c.isActive);\n      c.funders[c.numFunders++] = Funder({addr: msg.sender, amount: msg.value, campaignID: campaignID});\n      c.amount += msg.value;\n      NewFunder(msg.sender,msg.value,campaignID);\n    }\n\n    function mul(uint256 a, uint256 b) internal pure returns (uint256) {\n      if (a == 0) {\n        return 0;\n      }\n      uint256 c = a * b;\n      assert(c / a == b);\n      return c;\n  }\n\n    function checkGoalReached(uint campaignID) stopInEmergency public returns (bool reached) {\n        Campaign storage c = campaigns[campaignID];\n        if ( c.fundingDeadlineBlock <= block.number) {\n          if (c.amount < c.fundingGoal) {\n            //Charity Failed, Initiate Refunds\n            for(uint i=1; i<c.numFunders; i++){\n              uint refund =c.funders[i].amount;\n              c.funders[i].amount =0;\n              c.funders[i].addr.transfer(refund);\n              c.isActive = false;\n              return true;\n            }\n          }\n\n          if (c.amount >= c.fundingGoal){\n            // Charity Successful, Transfer Amount\n            uint amount = c.amount;\n            c.amount = 0;\n            c.beneficiary.transfer(amount);\n            c.isActive = false;\n            return true;\n          }\n        }\n\n        if (c.amount < c.fundingGoal) {\n            return false;\n        }\n    }\n\n    function destroy() isAdmin public{\n      //cleanup function to be used ONLY IN TESTING\n      selfdestruct(owner);\n    }\n}\n",
  "sourcePath": "/home/harry/Golconda/Golconda-thesis-master/contracts/CrowdfundedCharity.sol",
  "compiler": {
    "name": "solc",
    "version": "0.4.19+commit.c4cbbb05.Emscripten.clang"
  },
  "schemaVersion": "1.0.1",
  "updatedAt": "2018-02-23T12:31:39.994Z"
}