{
  "contractName": "CrowdfundedCharity",
  "abi": [
    {
      "constant": true,
      "inputs": [
        {
          "name": "",
          "type": "uint256"
        }
      ],
      "name": "campaigns",
      "outputs": [
        {
          "name": "beneficiary",
          "type": "address"
        },
        {
          "name": "id",
          "type": "uint256"
        },
        {
          "name": "fundingGoal",
          "type": "uint256"
        },
        {
          "name": "fundingDeadlineBlock",
          "type": "uint256"
        },
        {
          "name": "numFunders",
          "type": "uint256"
        },
        {
          "name": "amount",
          "type": "uint256"
        },
        {
          "name": "state",
          "type": "uint256"
        },
        {
          "name": "name",
          "type": "string"
        },
        {
          "name": "description",
          "type": "string"
        }
      ],
      "payable": false,
      "stateMutability": "view",
      "type": "function"
    },
    {
      "constant": true,
      "inputs": [],
      "name": "numCampaigns",
      "outputs": [
        {
          "name": "",
          "type": "uint256"
        }
      ],
      "payable": false,
      "stateMutability": "view",
      "type": "function"
    },
    {
      "constant": true,
      "inputs": [],
      "name": "version",
      "outputs": [
        {
          "name": "",
          "type": "string"
        }
      ],
      "payable": false,
      "stateMutability": "view",
      "type": "function"
    },
    {
      "inputs": [
        {
          "name": "version_number",
          "type": "string"
        }
      ],
      "payable": false,
      "stateMutability": "nonpayable",
      "type": "constructor"
    },
    {
      "anonymous": false,
      "inputs": [
        {
          "indexed": false,
          "name": "addr",
          "type": "address"
        },
        {
          "indexed": false,
          "name": "amount",
          "type": "uint256"
        },
        {
          "indexed": false,
          "name": "campaignID",
          "type": "uint256"
        }
      ],
      "name": "NewFunder",
      "type": "event"
    },
    {
      "anonymous": false,
      "inputs": [
        {
          "indexed": false,
          "name": "beneficiary",
          "type": "address"
        },
        {
          "indexed": false,
          "name": "fundingGoal",
          "type": "uint256"
        },
        {
          "indexed": false,
          "name": "fundingDeadlineBlock",
          "type": "uint256"
        }
      ],
      "name": "NewCharity",
      "type": "event"
    },
    {
      "constant": false,
      "inputs": [],
      "name": "toggleContractActive",
      "outputs": [],
      "payable": false,
      "stateMutability": "nonpayable",
      "type": "function"
    },
    {
      "constant": false,
      "inputs": [
        {
          "name": "beneficiary",
          "type": "address"
        },
        {
          "name": "goal",
          "type": "uint256"
        },
        {
          "name": "deadline",
          "type": "uint256"
        },
        {
          "name": "name",
          "type": "string"
        },
        {
          "name": "description",
          "type": "string"
        }
      ],
      "name": "newCampaign",
      "outputs": [
        {
          "name": "campaignID",
          "type": "uint256"
        }
      ],
      "payable": false,
      "stateMutability": "nonpayable",
      "type": "function"
    },
    {
      "constant": true,
      "inputs": [
        {
          "name": "campaignID",
          "type": "uint8"
        }
      ],
      "name": "totalFundsFor",
      "outputs": [
        {
          "name": "",
          "type": "uint256"
        }
      ],
      "payable": false,
      "stateMutability": "view",
      "type": "function"
    },
    {
      "constant": false,
      "inputs": [
        {
          "name": "campaignID",
          "type": "uint256"
        }
      ],
      "name": "contribute",
      "outputs": [],
      "payable": true,
      "stateMutability": "payable",
      "type": "function"
    },
    {
      "constant": false,
      "inputs": [
        {
          "name": "campaignID",
          "type": "uint256"
        }
      ],
      "name": "checkGoalReached",
      "outputs": [
        {
          "name": "reached",
          "type": "bool"
        }
      ],
      "payable": false,
      "stateMutability": "nonpayable",
      "type": "function"
    },
    {
      "constant": false,
      "inputs": [],
      "name": "destroy",
      "outputs": [],
      "payable": false,
      "stateMutability": "nonpayable",
      "type": "function"
    }
  ],
  "bytecode": "0x606060405260006001556000600460006101000a81548160ff021916908315150217905550341561002f57600080fd5b604051610f77380380610f778339810160405280805182019190505080600290805190602001906100619291906100a8565b50336000806101000a81548173ffffffffffffffffffffffffffffffffffffffff021916908373ffffffffffffffffffffffffffffffffffffffff1602179055505061014d565b828054600181600116156101000203166002900490600052602060002090601f016020900481019282601f106100e957805160ff1916838001178555610117565b82800160010185558215610117579182015b828111156101165782518255916020019190600101906100fb565b5b5090506101249190610128565b5090565b61014a91905b8082111561014657600081600090555060010161012e565b5090565b90565b610e1b8061015c6000396000f300606060405260043610610099576000357c0100000000000000000000000000000000000000000000000000000000900463ffffffff1680630b5c0a951461009e5780631385d24c146100d8578063141961bc146100ed5780632c0f7b6f1461028c57806354fd4d50146102b55780635b2329d41461034357806383197ef01461037e578063c1cbbca714610393578063e14d956f146103ab575b600080fd5b34156100a957600080fd5b6100c2600480803560ff16906020019091905050610490565b6040518082815260200191505060405180910390f35b34156100e357600080fd5b6100eb6104c7565b005b34156100f857600080fd5b61010e600480803590602001909190505061054e565b604051808a73ffffffffffffffffffffffffffffffffffffffff1673ffffffffffffffffffffffffffffffffffffffff16815260200189815260200188815260200187815260200186815260200185815260200184815260200180602001806020018381038352858181546001816001161561010002031660029004815260200191508054600181600116156101000203166002900480156101f15780601f106101c6576101008083540402835291602001916101f1565b820191906000526020600020905b8154815290600101906020018083116101d457829003601f168201915b50508381038252848181546001816001161561010002031660029004815260200191508054600181600116156101000203166002900480156102745780601f1061024957610100808354040283529160200191610274565b820191906000526020600020905b81548152906001019060200180831161025757829003601f168201915b50509b50505050505050505050505060405180910390f35b341561029757600080fd5b61029f6105ba565b6040518082815260200191505060405180910390f35b34156102c057600080fd5b6102c86105c0565b6040518080602001828103825283818151815260200191508051906020019080838360005b838110156103085780820151818401526020810190506102ed565b50505050905090810190601f1680156103355780820380516001836020036101000a031916815260200191505b509250505060405180910390f35b341561034e57600080fd5b610364600480803590602001909190505061065e565b604051808215151515815260200191505060405180910390f35b341561038957600080fd5b6103916108df565b005b6103a96004808035906020019091905050610974565b005b34156103b657600080fd5b61047a600480803573ffffffffffffffffffffffffffffffffffffffff1690602001909190803590602001909190803590602001909190803590602001908201803590602001908080601f0160208091040260200160405190810160405280939291908181526020018383808284378201915050505050509190803590602001908201803590602001908080601f01602080910402602001604051908101604052809392919081815260200183838082843782019150505050505091905050610b1e565b6040518082815260200191505060405180910390f35b60006001548260ff16111515156104a657600080fd5b600360008360ff168152602001908152602001600020600501549050919050565b6000809054906101000a900473ffffffffffffffffffffffffffffffffffffffff1673ffffffffffffffffffffffffffffffffffffffff163373ffffffffffffffffffffffffffffffffffffffff1614151561052257600080fd5b600460009054906101000a900460ff1615600460006101000a81548160ff021916908315150217905550565b60036020528060005260406000206000915090508060000160009054906101000a900473ffffffffffffffffffffffffffffffffffffffff1690806001015490806002015490806003015490806004015490806005015490806006015490806007019080600801905089565b60015481565b60028054600181600116156101000203166002900480601f0160208091040260200160405190810160405280929190818152602001828054600181600116156101000203166002900480156106565780601f1061062b57610100808354040283529160200191610656565b820191906000526020600020905b81548152906001019060200180831161063957829003601f168201915b505050505081565b6000806000806000600460009054906101000a900460ff1615156108d6576003600087815260200190815260200160002093504384600301541115156108225783600201548460050154101561078857600092505b836004015483101561077d5783600901600084815260200190815260200160002060010154915060008460090160008581526020019081526020016000206001018190555083600901600084815260200190815260200160002060000160009054906101000a900473ffffffffffffffffffffffffffffffffffffffff1673ffffffffffffffffffffffffffffffffffffffff166108fc839081150290604051600060405180830381858888f19350505050151561077057600080fd5b82806001019350506106b3565b600284600601819055505b836002015484600501541015156108215783600501549050600084600501819055508360000160009054906101000a900473ffffffffffffffffffffffffffffffffffffffff1673ffffffffffffffffffffffffffffffffffffffff166108fc829081150290604051600060405180830381858888f19350505050151561080e57600080fd5b60018460060181905550600194506108d5565b5b836002015484600501541015156108bb5783600501549050600084600501819055508360000160009054906101000a900473ffffffffffffffffffffffffffffffffffffffff1673ffffffffffffffffffffffffffffffffffffffff166108fc829081150290604051600060405180830381858888f1935050505015156108a857600080fd5b60018460060181905550600194506108d5565b8360020154846005015410156108d457600094506108d5565b5b5b50505050919050565b6000809054906101000a900473ffffffffffffffffffffffffffffffffffffffff1673ffffffffffffffffffffffffffffffffffffffff163373ffffffffffffffffffffffffffffffffffffffff1614151561093a57600080fd5b6000809054906101000a900473ffffffffffffffffffffffffffffffffffffffff1673ffffffffffffffffffffffffffffffffffffffff16ff5b6000600460009054906101000a900460ff161515610b1a5760036000838152602001908152602001600020905060015482111515156109b257600080fd5b4381600301541115156109c457600080fd5b806002015434826005015401111515156109dd57600080fd5b6060604051908101604052803373ffffffffffffffffffffffffffffffffffffffff1681526020013481526020018381525081600901600083600401600081548092919060010191905055815260200190815260200160002060008201518160000160006101000a81548173ffffffffffffffffffffffffffffffffffffffff021916908373ffffffffffffffffffffffffffffffffffffffff16021790555060208201518160010155604082015181600201559050503481600501600082825401925050819055507f72a81bb95cf3aa9c7033351aee7b3e64f7d6dc3d928515cf1082e56ed4f961b1333484604051808473ffffffffffffffffffffffffffffffffffffffff1673ffffffffffffffffffffffffffffffffffffffff168152602001838152602001828152602001935050505060405180910390a15b5050565b600080600460009054906101000a900460ff161515610d05576001600081548092919060010191905055506001549150610b59856001610d0f565b43019050610120604051908101604052808873ffffffffffffffffffffffffffffffffffffffff168152602001600184018152602001878152602001828152602001600081526020016000815260200160038152602001858152602001848152506003600084815260200190815260200160002060008201518160000160006101000a81548173ffffffffffffffffffffffffffffffffffffffff021916908373ffffffffffffffffffffffffffffffffffffffff1602179055506020820151816001015560408201518160020155606082015181600301556080820151816004015560a0820151816005015560c0820151816006015560e0820151816007019080519060200190610c6c929190610d4a565b50610100820151816008019080519060200190610c8a929190610d4a565b509050507ff12b12a69d146cd10584ff540dacac148a08c902dac5de82ac03268c63a200cb878783604051808473ffffffffffffffffffffffffffffffffffffffff1673ffffffffffffffffffffffffffffffffffffffff168152602001838152602001828152602001935050505060405180910390a18191505b5095945050505050565b6000806000841415610d245760009150610d43565b8284029050828482811515610d3557fe5b04141515610d3f57fe5b8091505b5092915050565b828054600181600116156101000203166002900490600052602060002090601f016020900481019282601f10610d8b57805160ff1916838001178555610db9565b82800160010185558215610db9579182015b82811115610db8578251825591602001919060010190610d9d565b5b509050610dc69190610dca565b5090565b610dec91905b80821115610de8576000816000905550600101610dd0565b5090565b905600a165627a7a7230582054f5ddb3c36016e24a425c8399ede363a5e82150ae8d2a1dc08fe3561ba10b3d0029",
  "source": "pragma solidity ^0.4.18;\n\ncontract CrowdfundedCharity {\n\n    address private owner;\n\n    event NewFunder(\n      address addr,\n      uint amount,\n      uint campaignID\n    );\n\n    event NewCharity(\n      address beneficiary,\n      uint fundingGoal,\n      uint fundingDeadlineBlock\n      );\n\n    struct Funder {\n        address addr;\n        uint amount;\n        uint campaignID;\n    }\n\n    struct Campaign {\n        address beneficiary; // This will be the adress to be paid for the order\n        uint id; //This is different from campaign ID, used to identify each campaign from the frontend\n        uint fundingGoal;\n        uint fundingDeadlineBlock;\n        uint numFunders;\n        uint amount;\n        uint state; // states are : 1-successful, 2-unsuccessful, 3-pending\n        string name;\n        string description;\n        mapping (uint => Funder) funders;\n    }\n\n    uint public numCampaigns = 0;\n    string public version;\n    mapping (uint => Campaign) public campaigns;\n\n    modifier isAdmin(){\n      require(msg.sender == owner);\n      _;\n    }\n\n    bool private stopped = false;\n\n    function toggleContractActive() isAdmin public {\n      stopped = !stopped;\n    }\n\n    modifier stopInEmergency { if(!stopped) _;}\n\n    //simple constructor\n    function CrowdfundedCharity (string version_number) public {\n    version = version_number;\n    owner = msg.sender;\n    }\n\n    function newCampaign(address beneficiary, uint goal, uint deadline, string name, string description) stopInEmergency public returns (uint campaignID) {\n        // deadline is given in days. Using the average number of blocks per day\n        // we calculate how many blocks the campaign will be valid for.\n        numCampaigns ++;\n        campaignID = numCampaigns;\n        uint deadlineBlock = block.number + mul(deadline,1); //Changed from 5760\n        //for testing purposes.\n        // campaignID is the return variable\n        // Creates new struct and saves in storage. We leave out the mapping type.\n        campaigns[campaignID] = Campaign(beneficiary, campaignID + 1 , goal, deadlineBlock, 0, 0,3, name, description);\n        NewCharity(beneficiary, goal, deadlineBlock);\n        return campaignID;\n    }\n\n   function totalFundsFor(uint8 campaignID) view public returns (uint){\n        require(campaignID <= numCampaigns);\n        return campaigns[campaignID].amount;\n   }\n\n    function contribute(uint campaignID) stopInEmergency public payable {\n\n      Campaign storage c = campaigns[campaignID];\n      // Creates a new temporary memory struct, initialised with the given values\n      // and copies it over to memory.\n      require( campaignID <= numCampaigns);\n      require( c.fundingDeadlineBlock > block.number );\n      require( c.amount + msg.value <= c.fundingGoal );\n      c.funders[c.numFunders++] = Funder({addr: msg.sender, amount: msg.value, campaignID: campaignID});\n      c.amount += msg.value;\n      NewFunder(msg.sender,msg.value,campaignID);\n    }\n\n    function mul(uint256 a, uint256 b) internal pure returns (uint256) {\n      if (a == 0) {\n        return 0;\n      }\n      uint256 c = a * b;\n      assert(c / a == b);\n      return c;\n  }\n\n    function checkGoalReached(uint campaignID) stopInEmergency public returns (bool reached) {\n        Campaign storage c = campaigns[campaignID];\n        //require( c.state == 3);\n        if ( c.fundingDeadlineBlock <= block.number) {\n          if (c.amount < c.fundingGoal) {\n            //Charity Failed, Initiate Refunds\n            for(uint i=0; i<c.numFunders; i++){\n              uint refund =c.funders[i].amount;\n              c.funders[i].amount =0;\n              c.funders[i].addr.transfer(refund);\n            }\n            c.state = 2;\n          }\n\n          if (c.amount >= c.fundingGoal){\n            // Charity Successful, Transfer Amount\n            uint amount = c.amount;\n            c.amount = 0;\n            c.beneficiary.transfer(amount);\n            c.state = 1;\n            return true;\n          }\n        }\n        //For testing\n        if (c.amount >= c.fundingGoal){\n          // Charity Successful, Transfer Amount\n          amount = c.amount;\n          c.amount = 0;\n          c.beneficiary.transfer(amount);\n          c.state = 1;\n          return true;\n        }\n\n        if (c.amount < c.fundingGoal) {\n            return false;\n        }\n    }\n\n    function destroy() isAdmin public{\n      //cleanup function to be used ONLY IN TESTING\n      selfdestruct(owner);\n    }\n}\n",
  "sourcePath": "/home/harry/Golconda/Golconda-thesis-master/contracts/CrowdfundedCharity.sol",
  "compiler": {
    "name": "solc",
    "version": "0.4.19+commit.c4cbbb05.Emscripten.clang"
  },
  "schemaVersion": "1.0.1",
  "updatedAt": "2018-02-28T15:51:36.259Z"
}