{
  "contractName": "CrowdfundedCharity",
  "abi": [
    {
      "constant": true,
      "inputs": [
        {
          "name": "campaignID",
          "type": "uint8"
        }
      ],
      "name": "totalFundsFor",
      "outputs": [
        {
          "name": "",
          "type": "uint256"
        }
      ],
      "payable": false,
      "stateMutability": "view",
      "type": "function"
    },
    {
      "constant": true,
      "inputs": [
        {
          "name": "",
          "type": "uint256"
        }
      ],
      "name": "campaigns",
      "outputs": [
        {
          "name": "beneficiary",
          "type": "address"
        },
        {
          "name": "fundingGoal",
          "type": "uint256"
        },
        {
          "name": "fundingDeadlineBlock",
          "type": "uint256"
        },
        {
          "name": "numFunders",
          "type": "uint256"
        },
        {
          "name": "amount",
          "type": "uint256"
        }
      ],
      "payable": false,
      "stateMutability": "view",
      "type": "function"
    },
    {
      "constant": true,
      "inputs": [],
      "name": "numCampaigns",
      "outputs": [
        {
          "name": "",
          "type": "uint256"
        }
      ],
      "payable": false,
      "stateMutability": "view",
      "type": "function"
    },
    {
      "constant": true,
      "inputs": [],
      "name": "version",
      "outputs": [
        {
          "name": "",
          "type": "bytes32"
        }
      ],
      "payable": false,
      "stateMutability": "view",
      "type": "function"
    },
    {
      "constant": false,
      "inputs": [
        {
          "name": "campaignID",
          "type": "uint256"
        }
      ],
      "name": "checkGoalReached",
      "outputs": [
        {
          "name": "reached",
          "type": "bool"
        }
      ],
      "payable": false,
      "stateMutability": "nonpayable",
      "type": "function"
    },
    {
      "constant": false,
      "inputs": [
        {
          "name": "campaignID",
          "type": "uint256"
        }
      ],
      "name": "contribute",
      "outputs": [],
      "payable": true,
      "stateMutability": "payable",
      "type": "function"
    },
    {
      "constant": false,
      "inputs": [
        {
          "name": "beneficiary",
          "type": "address"
        },
        {
          "name": "goal",
          "type": "uint256"
        },
        {
          "name": "deadline",
          "type": "uint256"
        }
      ],
      "name": "newCampaign",
      "outputs": [
        {
          "name": "campaignID",
          "type": "uint256"
        }
      ],
      "payable": false,
      "stateMutability": "nonpayable",
      "type": "function"
    },
    {
      "inputs": [
        {
          "name": "version_number",
          "type": "bytes32"
        }
      ],
      "payable": false,
      "stateMutability": "nonpayable",
      "type": "constructor"
    },
    {
      "anonymous": false,
      "inputs": [
        {
          "indexed": false,
          "name": "addr",
          "type": "address"
        },
        {
          "indexed": false,
          "name": "amount",
          "type": "uint256"
        }
      ],
      "name": "NewFunder",
      "type": "event"
    },
    {
      "anonymous": false,
      "inputs": [
        {
          "indexed": false,
          "name": "beneficiary",
          "type": "address"
        },
        {
          "indexed": false,
          "name": "fundingGoal",
          "type": "uint256"
        },
        {
          "indexed": false,
          "name": "fundingDeadlineBlock",
          "type": "uint256"
        }
      ],
      "name": "NewCharity",
      "type": "event"
    }
  ],
  "bytecode": "0x606060405260008055341561001357600080fd5b6040516020806107b2833981016040528080519060200190919050508060018160001916905550506107688061004a6000396000f300606060405260043610610083576000357c0100000000000000000000000000000000000000000000000000000000900463ffffffff1680630b5c0a9514610088578063141961bc146100c25780632c0f7b6f1461014157806354fd4d501461016a5780635b2329d41461019b578063c1cbbca7146101d6578063df175e9b146101ee575b600080fd5b341561009357600080fd5b6100ac600480803560ff1690602001909190505061024d565b6040518082815260200191505060405180910390f35b34156100cd57600080fd5b6100e36004808035906020019091905050610283565b604051808673ffffffffffffffffffffffffffffffffffffffff1673ffffffffffffffffffffffffffffffffffffffff1681526020018581526020018481526020018381526020018281526020019550505050505060405180910390f35b341561014c57600080fd5b6101546102d9565b6040518082815260200191505060405180910390f35b341561017557600080fd5b61017d6102df565b60405180826000191660001916815260200191505060405180910390f35b34156101a657600080fd5b6101bc60048080359060200190919050506102e5565b604051808215151515815260200191505060405180910390f35b6101ec600480803590602001909190505061051b565b005b34156101f957600080fd5b610237600480803573ffffffffffffffffffffffffffffffffffffffff16906020019091908035906020019091908035906020019091905050610659565b6040518082815260200191505060405180910390f35b600080548260ff161115151561026257600080fd5b600260008360ff168152602001908152602001600020600401549050919050565b60026020528060005260406000206000915090508060000160009054906101000a900473ffffffffffffffffffffffffffffffffffffffff16908060010154908060020154908060030154908060040154905085565b60005481565b60015481565b600080600080600060026000878152602001908152602001600020935043846002015411151561047f578360010154846004015410156103ef57600192505b83600301548310156103ee5783600501600084815260200190815260200160002060010154915060008460050160008581526020019081526020016000206001018190555083600501600084815260200190815260200160002060000160009054906101000a900473ffffffffffffffffffffffffffffffffffffffff1673ffffffffffffffffffffffffffffffffffffffff166108fc839081150290604051600060405180830381858888f1935050505015156103e157600080fd5b8280600101935050610324565b5b8360010154846004015410151561047e5783600401549050600084600401819055508360000160009054906101000a900473ffffffffffffffffffffffffffffffffffffffff1673ffffffffffffffffffffffffffffffffffffffff166108fc829081150290604051600060405180830381858888f19350505050151561047557600080fd5b60019450610512565b5b8360010154846004015410156104985760009450610512565b83600401549050600084600401819055508360000160009054906101000a900473ffffffffffffffffffffffffffffffffffffffff1673ffffffffffffffffffffffffffffffffffffffff166108fc829081150290604051600060405180830381858888f19350505050151561050d57600080fd5b600194505b50505050919050565b600060026000838152602001908152602001600020905060408051908101604052803373ffffffffffffffffffffffffffffffffffffffff1681526020013481525081600501600083600301600081548092919060010191905055815260200190815260200160002060008201518160000160006101000a81548173ffffffffffffffffffffffffffffffffffffffff021916908373ffffffffffffffffffffffffffffffffffffffff160217905550602082015181600101559050503481600401600082825401925050819055507fb4e01cd920d99924952802b56d51c0f9786aaaf9e5d125458b4a3efcc645918e3334604051808373ffffffffffffffffffffffffffffffffffffffff1673ffffffffffffffffffffffffffffffffffffffff1681526020018281526020019250505060405180910390a15050565b600080600081548092919060010191905055905060a0604051908101604052808573ffffffffffffffffffffffffffffffffffffffff1681526020018481526020018381526020016000815260200160008152506002600083815260200190815260200160002060008201518160000160006101000a81548173ffffffffffffffffffffffffffffffffffffffff021916908373ffffffffffffffffffffffffffffffffffffffff1602179055506020820151816001015560408201518160020155606082015181600301556080820151816004015590505080905093925050505600a165627a7a72305820c548a49e5f2a6eb8d9b3e38aa00b1f5b20ffc0d5e7c70aff1880c25376d040f00029",
  "source": "pragma solidity ^0.4.18;\n\ncontract CrowdfundedCharity {\n    // Defines a new type with two fields.\n\n    event NewFunder(\n      address addr,\n      uint amount\n    );\n\n    event NewCharity(\n      address beneficiary,\n      uint fundingGoal,\n      uint fundingDeadlineBlock\n      );\n\n\n\n    struct Funder {\n        address addr;\n        uint amount;\n    }\n    struct Campaign {\n        address beneficiary; // This will be the adress to be paid for the order\n        uint fundingGoal;\n        uint fundingDeadlineBlock;\n        uint numFunders;\n        uint amount;\n        mapping (uint => Funder) funders;\n    }\n\n    uint public numCampaigns = 0;\n    bytes32 public version;\n    mapping (uint => Campaign) public campaigns;\n\n    //simple constructor\n    function CrowdfundedCharity (bytes32 version_number) public {\n    version = version_number;\n    }\n\n    function newCampaign(address beneficiary, uint goal, uint deadline) public returns (uint campaignID) {\n        campaignID = numCampaigns++;\n        // campaignID is return variable\n        // Creates new struct and saves in storage. We leave out the mapping type.\n        campaigns[campaignID] = Campaign(beneficiary, goal, deadline, 0, 0);\n        //NewCharity(beneficiary, goal, deadline);\n        return campaignID;\n    }\n\n   function totalFundsFor(uint8 campaignID) view public returns (uint){\n        require(campaignID <= numCampaigns);\n        return campaigns[campaignID].amount;\n   }\n\n\n    function contribute(uint campaignID) public payable {\n\n      //  require(campaignID <= numCampaigns);\n      //  require( c.fundingDeadlineBlock < block.number );\n      //  require( c.amount + msg.value < c.fundingGoal );\n        Campaign storage c = campaigns[campaignID];\n        // Creates a new temporary memory struct, initialised with the given values\n        // and copies it over to memory.\n\n        c.funders[c.numFunders++] = Funder({addr: msg.sender, amount: msg.value});\n        c.amount += msg.value;\n        NewFunder(msg.sender,msg.value);\n    }\n\n    function checkGoalReached(uint campaignID) public returns (bool reached) {\n        Campaign storage c = campaigns[campaignID];\n        if ( c.fundingDeadlineBlock <= block.number) {\n          if (c.amount < c.fundingGoal) {\n            //Charity Failed, Initiate Refunds\n            for(uint i=1; i<c.numFunders; i++){\n              uint refund =c.funders[i].amount;\n              c.funders[i].amount =0;\n              c.funders[i].addr.transfer(refund);\n\n            }\n          }\n          if (c.amount >= c.fundingGoal){\n            // Charity Successful, Transfer Amount\n            uint amount = c.amount;\n            c.amount = 0;\n            c.beneficiary.transfer(amount);\n            return true;\n\n          }\n        }\n        if (c.amount < c.fundingGoal) {\n            return false;\n        }\n        amount = c.amount;\n        c.amount = 0;\n        c.beneficiary.transfer(amount);\n        return true;\n    }\n}\n",
  "sourcePath": "/home/harry/Golconda/Golconda-thesis-master/contracts/CrowdfundedCharity.sol",
  "compiler": {
    "name": "solc",
    "version": "0.4.18+commit.9cf6e910.Emscripten.clang"
  },
  "schemaVersion": "1.0.1",
  "updatedAt": "2017-12-12T17:11:12.932Z"
}